{
  "_format": "hh-sol-artifact-1",
  "contractName": "PatentNFTMarketplace",
  "sourceName": "contracts/PatentNFTMarketPlace.sol",
  "abi": [
    {
      "inputs": [
        {
          "internalType": "contract PatentNFTData",
          "name": "_patentNFTData",
          "type": "address"
        }
      ],
      "stateMutability": "nonpayable",
      "type": "constructor"
    },
    {
      "anonymous": false,
      "inputs": [
        {
          "indexed": false,
          "internalType": "contract PatentNFT",
          "name": "patentNFT",
          "type": "address"
        },
        {
          "indexed": false,
          "internalType": "uint256",
          "name": "patentId",
          "type": "uint256"
        },
        {
          "indexed": false,
          "internalType": "address",
          "name": "ownerBeforeOwnershipTransferred",
          "type": "address"
        },
        {
          "indexed": false,
          "internalType": "address",
          "name": "ownerAfterOwnershipTransferred",
          "type": "address"
        }
      ],
      "name": "PatentNFTOwnershipChanged",
      "type": "event"
    },
    {
      "anonymous": false,
      "inputs": [
        {
          "indexed": false,
          "internalType": "uint256",
          "name": "ad",
          "type": "uint256"
        },
        {
          "indexed": false,
          "internalType": "bytes32",
          "name": "status",
          "type": "bytes32"
        }
      ],
      "name": "TradeStatusChange",
      "type": "event"
    },
    {
      "inputs": [],
      "name": "PATENT_NFT_MARKETPLACE",
      "outputs": [
        {
          "internalType": "address",
          "name": "",
          "type": "address"
        }
      ],
      "stateMutability": "view",
      "type": "function"
    },
    {
      "inputs": [
        {
          "internalType": "contract PatentNFT",
          "name": "_patentNFT",
          "type": "address"
        }
      ],
      "name": "buyPatentNFT",
      "outputs": [
        {
          "internalType": "bool",
          "name": "",
          "type": "bool"
        }
      ],
      "stateMutability": "payable",
      "type": "function"
    },
    {
      "inputs": [
        {
          "internalType": "contract PatentNFT",
          "name": "__patentNFT",
          "type": "address"
        },
        {
          "internalType": "uint256",
          "name": "_patentId",
          "type": "uint256"
        }
      ],
      "name": "cancelTrade",
      "outputs": [],
      "stateMutability": "nonpayable",
      "type": "function"
    },
    {
      "inputs": [
        {
          "internalType": "uint256",
          "name": "_patentId",
          "type": "uint256"
        }
      ],
      "name": "getTrade",
      "outputs": [
        {
          "components": [
            {
              "internalType": "address",
              "name": "seller",
              "type": "address"
            },
            {
              "internalType": "uint256",
              "name": "patentId",
              "type": "uint256"
            },
            {
              "internalType": "uint256",
              "name": "patentPrice",
              "type": "uint256"
            },
            {
              "internalType": "bytes32",
              "name": "status",
              "type": "bytes32"
            }
          ],
          "internalType": "struct PatentNFTTradable.Trade",
          "name": "trade_",
          "type": "tuple"
        }
      ],
      "stateMutability": "view",
      "type": "function"
    },
    {
      "inputs": [
        {
          "internalType": "contract PatentNFT",
          "name": "__patentNFT",
          "type": "address"
        },
        {
          "internalType": "uint256",
          "name": "_patentId",
          "type": "uint256"
        }
      ],
      "name": "openTrade",
      "outputs": [],
      "stateMutability": "nonpayable",
      "type": "function"
    },
    {
      "inputs": [
        {
          "internalType": "contract PatentNFT",
          "name": "_patentNFT",
          "type": "address"
        },
        {
          "internalType": "uint256",
          "name": "_patentId",
          "type": "uint256"
        },
        {
          "internalType": "uint256",
          "name": "_patentPrice",
          "type": "uint256"
        }
      ],
      "name": "openTradeWhenCreateNewPatentNFT",
      "outputs": [],
      "stateMutability": "nonpayable",
      "type": "function"
    },
    {
      "inputs": [],
      "name": "patentNFT",
      "outputs": [
        {
          "internalType": "contract PatentNFT",
          "name": "",
          "type": "address"
        }
      ],
      "stateMutability": "view",
      "type": "function"
    },
    {
      "inputs": [],
      "name": "patentNFTData",
      "outputs": [
        {
          "internalType": "contract PatentNFTData",
          "name": "",
          "type": "address"
        }
      ],
      "stateMutability": "view",
      "type": "function"
    },
    {
      "inputs": [],
      "name": "tradeCounter",
      "outputs": [
        {
          "internalType": "uint256",
          "name": "",
          "type": "uint256"
        }
      ],
      "stateMutability": "view",
      "type": "function"
    },
    {
      "inputs": [
        {
          "internalType": "uint256",
          "name": "",
          "type": "uint256"
        }
      ],
      "name": "trades",
      "outputs": [
        {
          "internalType": "address",
          "name": "seller",
          "type": "address"
        },
        {
          "internalType": "uint256",
          "name": "patentId",
          "type": "uint256"
        },
        {
          "internalType": "uint256",
          "name": "patentPrice",
          "type": "uint256"
        },
        {
          "internalType": "bytes32",
          "name": "status",
          "type": "bytes32"
        }
      ],
      "stateMutability": "view",
      "type": "function"
    },
    {
      "inputs": [
        {
          "internalType": "contract PatentNFT",
          "name": "__patentNFT",
          "type": "address"
        },
        {
          "internalType": "uint256",
          "name": "_patentId",
          "type": "uint256"
        },
        {
          "internalType": "address",
          "name": "_buyer",
          "type": "address"
        }
      ],
      "name": "transferOwnershipOfPatentNFT",
      "outputs": [],
      "stateMutability": "nonpayable",
      "type": "function"
    }
  ],
  "bytecode": "0x608060405234801561001057600080fd5b5060405161139a38038061139a83398101604081905261002f91610062565b600180546001600160a01b039092166001600160a01b031992831617905560006003556004805490911630179055610090565b600060208284031215610073578081fd5b81516001600160a01b0381168114610089578182fd5b9392505050565b6112fb8061009f6000396000f3fe6080604052600436106100bc5760003560e01c8063759c4bf311610074578063967bac061161004e578063967bac06146102e5578063a8d83deb14610305578063c6527a211461032557600080fd5b8063759c4bf31461028257806380a279c4146102a25780639486cb0b146102c257600080fd5b806351204235116100a55780635120423514610204578063525e38221461023c578063660d15b51461025e57600080fd5b80631e6c598e146100c15780632db25e051461013e575b600080fd5b3480156100cd57600080fd5b5061010f6100dc366004611208565b600260208190526000918252604090912080546001820154928201546003909201546001600160a01b0390911692919084565b604080516001600160a01b03909516855260208501939093529183015260608201526080015b60405180910390f35b34801561014a57600080fd5b506101c8610159366004611208565b60408051608081018252600080825260208201819052918101829052606081019190915250600090815260026020818152604092839020835160808101855281546001600160a01b03168152600182015492810192909252918201549281019290925260030154606082015290565b604051610135919081516001600160a01b0316815260208083015190820152604080830151908201526060918201519181019190915260800190565b34801561021057600080fd5b50600054610224906001600160a01b031681565b6040516001600160a01b039091168152602001610135565b34801561024857600080fd5b5061025c6102573660046110c8565b610345565b005b34801561026a57600080fd5b5061027460035481565b604051908152602001610135565b34801561028e57600080fd5b5061025c61029d36600461105c565b610495565b3480156102ae57600080fd5b5061025c6102bd36600461105c565b6106fa565b6102d56102d0366004611040565b6108e4565b6040519015158152602001610135565b3480156102f157600080fd5b50600154610224906001600160a01b031681565b34801561031157600080fd5b50600454610224906001600160a01b031681565b34801561033157600080fd5b5061025c610340366004611087565b610d21565b6040516323b872dd60e01b8152336004820152306024820152604481018390526001600160a01b038416906323b872dd90606401600060405180830381600087803b15801561039357600080fd5b505af11580156103a7573d6000803e3d6000fd5b505050506001600360008282546103be919061127b565b90915550506040805160808101825233815260208082018581528284018581526327b832b760e11b60608501908152600380546000908152600295869052969096209451855473ffffffffffffffffffffffffffffffffffffffff19166001600160a01b039091161785559151600180860191909155905192840192909255519183019190915590547f4d38ed2c5ea671a5ccddc331f0ebebd94a60aaf6e572543497485d4d148f9edf9161047291611293565b604080519182526327b832b760e11b6020830152015b60405180910390a1505050565b60015460408051634dd5bfa560e11b81526001600160a01b0385811660048301526024820192909252600960448201526810d85b98d95b1b195960ba1b6064820152911690639bab7f4a90608401602060405180830381600087803b1580156104fd57600080fd5b505af1158015610511573d6000803e3d6000fd5b505050506040513d601f19601f820116820180604052508101906105359190611020565b50600081815260026020526040902080546001600160a01b031633146105c85760405162461bcd60e51b815260206004820152602660248201527f54726164652063616e2062652063616e63656c6c6564206f6e6c79206279207360448201527f656c6c65722e000000000000000000000000000000000000000000000000000060648201526084015b60405180910390fd5b80600301546327b832b760e11b146106225760405162461bcd60e51b815260206004820152601260248201527f5472616465206973206e6f74204f70656e2e000000000000000000000000000060448201526064016105bf565b600054815460018301546040516323b872dd60e01b81523060048201526001600160a01b03928316602482015260448101919091529116906323b872dd90606401600060405180830381600087803b15801561067d57600080fd5b505af1158015610691573d6000803e3d6000fd5b505050600083815260026020526040908190206810d85b98d95b1b195960ba1b600390910155517f4d38ed2c5ea671a5ccddc331f0ebebd94a60aaf6e572543497485d4d148f9edf9150610488908481526810d85b98d95b1b195960ba1b602082015260400190565b600154604051634dd5bfa560e11b81526001600160a01b0390911690639bab7f4a906107559085906004016001600160a01b039190911681526040602082018190526004908201526327b832b760e11b606082015260800190565b602060405180830381600087803b15801561076f57600080fd5b505af1158015610783573d6000803e3d6000fd5b505050506040513d601f19601f820116820180604052508101906107a79190611020565b50600081815260026020526040902080546001600160a01b031633146108195760405162461bcd60e51b815260206004820152602160248201527f54726164652063616e206265206f70656e206f6e6c792062792073656c6c65726044820152601760f91b60648201526084016105bf565b60005460018201546040516323b872dd60e01b815233600482015230602482015260448101919091526001600160a01b03909116906323b872dd90606401600060405180830381600087803b15801561087157600080fd5b505af1158015610885573d6000803e3d6000fd5b505050600083815260026020526040908190206327b832b760e11b600390910155517f4d38ed2c5ea671a5ccddc331f0ebebd94a60aaf6e572543497485d4d148f9edf9150610488908481526327b832b760e11b602082015260400190565b60015460405163a370fd3f60e01b81526001600160a01b038084166004830152600092849284929091169063a370fd3f9060240160006040518083038186803b15801561093057600080fd5b505afa158015610944573d6000803e3d6000fd5b505050506040513d6000823e601f3d908101601f1916820160405261096c91908101906110fc565b606081015160808201519192509081903481146109f15760405162461bcd60e51b815260206004820152602a60248201527f6d73672e76616c75652073686f756c6420626520657175616c20746f2074686560448201527f20627579416d6f756e740000000000000000000000000000000000000000000060648201526084016105bf565b6040516001600160a01b0383169082156108fc029083906000818181858888f19350505050158015610a27573d6000803e3d6000fd5b5060405163095ea7b360e01b8152336004820181905260016024830181905290916001600160a01b0388169063095ea7b390604401600060405180830381600087803b158015610a7657600080fd5b505af1158015610a8a573d6000803e3d6000fd5b50506040516331a9108f60e11b815260048101849052600092506001600160a01b038a169150636352211e9060240160206040518083038186803b158015610ad157600080fd5b505afa158015610ae5573d6000803e3d6000fd5b505050506040513d601f19601f82011682018060405250810190610b099190610ffd565b9050610b16888385610d21565b60015460405163789d91db60e01b81526001600160a01b038a8116600483015285811660248301529091169063789d91db90604401602060405180830381600087803b158015610b6557600080fd5b505af1158015610b79573d6000803e3d6000fd5b505050506040513d601f19601f82011682018060405250810190610b9d9190611020565b5060015460408051634dd5bfa560e11b81526001600160a01b038b811660048301526024820192909252600960448201526810d85b98d95b1b195960ba1b6064820152911690639bab7f4a90608401602060405180830381600087803b158015610c0657600080fd5b505af1158015610c1a573d6000803e3d6000fd5b505050506040513d601f19601f82011682018060405250810190610c3e9190611020565b506040516331a9108f60e11b8152600481018390526000906001600160a01b038a1690636352211e9060240160206040518083038186803b158015610c8257600080fd5b505afa158015610c96573d6000803e3d6000fd5b505050506040513d601f19601f82011682018060405250810190610cba9190610ffd565b604080516001600160a01b038c8116825260208201879052858116828401528316606082015290519192507f6784214bd57f1584e408d4d8d528dab63be36d70c77e8de1478005670a6a1a1a919081900360800190a15060019a9950505050505050505050565b826000610d978460408051608081018252600080825260208201819052918101829052606081019190915250600090815260026020818152604092839020835160808101855281546001600160a01b03168152600182015492810192909252918201549281019290925260030154606082015290565b905080606001516327b832b760e11b14610df35760405162461bcd60e51b815260206004820152601260248201527f5472616465206973206e6f74204f70656e2e000000000000000000000000000060448201526064016105bf565b6000848152600260205260409020805473ffffffffffffffffffffffffffffffffffffffff19166001600160a01b03851617905560208101516040516323b872dd60e01b81523060048201526001600160a01b0385811660248301526044820192909252908316906323b872dd90606401600060405180830381600087803b158015610e7e57600080fd5b505af1158015610e92573d6000803e3d6000fd5b505050506810d85b98d95b1b195960ba1b610f168560408051608081018252600080825260208201819052918101829052606081019190915250600090815260026020818152604092839020835160808101855281546001600160a01b03168152600182015492810192909252918201549281019290925260030154606082015290565b60600152604080518581526810d85b98d95b1b195960ba1b60208201527f4d38ed2c5ea671a5ccddc331f0ebebd94a60aaf6e572543497485d4d148f9edf910160405180910390a15050505050565b8051610f70816112d6565b919050565b600082601f830112610f85578081fd5b815167ffffffffffffffff811115610f9f57610f9f6112c0565b6020610fb3601f8301601f1916820161124a565b8281528582848701011115610fc6578384fd5b835b83811015610fe3578581018301518282018401528201610fc8565b83811115610ff357848385840101525b5095945050505050565b60006020828403121561100e578081fd5b8151611019816112d6565b9392505050565b600060208284031215611031578081fd5b81518015158114611019578182fd5b600060208284031215611051578081fd5b8135611019816112d6565b6000806040838503121561106e578081fd5b8235611079816112d6565b946020939093013593505050565b60008060006060848603121561109b578081fd5b83356110a6816112d6565b92506020840135915060408401356110bd816112d6565b809150509250925092565b6000806000606084860312156110dc578283fd5b83356110e7816112d6565b95602085013595506040909401359392505050565b60006020828403121561110d578081fd5b815167ffffffffffffffff80821115611124578283fd5b908301906101008286031215611138578283fd5b611140611220565b61114983610f65565b815260208301518281111561115c578485fd5b61116887828601610f75565b60208301525060408301518281111561117f578485fd5b61118b87828601610f75565b60408301525061119d60608401610f65565b60608201526080830151608082015260a0830151828111156111bd578485fd5b6111c987828601610f75565b60a08301525060c0830151828111156111e0578485fd5b6111ec87828601610f75565b60c08301525060e083015160e082015280935050505092915050565b600060208284031215611219578081fd5b5035919050565b604051610100810167ffffffffffffffff81118282101715611244576112446112c0565b60405290565b604051601f8201601f1916810167ffffffffffffffff81118282101715611273576112736112c0565b604052919050565b6000821982111561128e5761128e6112aa565b500190565b6000828210156112a5576112a56112aa565b500390565b634e487b7160e01b600052601160045260246000fd5b634e487b7160e01b600052604160045260246000fd5b6001600160a01b03811681146112eb57600080fd5b5056fea164736f6c6343000804000a",
  "linkReferences": {},
  "deployedLinkReferences": {}
}