{
  "_format": "hh-sol-artifact-1",
  "contractName": "PatentNFTFactory",
  "sourceName": "contracts/PatentNFTFactory.sol",
  "abi": [
    {
      "inputs": [
        {
          "internalType": "contract PatentNFTMarketplace",
          "name": "_patentNFTMarketplace",
          "type": "address"
        },
        {
          "internalType": "contract PatentNFTData",
          "name": "_patentNFTData",
          "type": "address"
        }
      ],
      "stateMutability": "nonpayable",
      "type": "constructor"
    },
    {
      "anonymous": false,
      "inputs": [
        {
          "indexed": false,
          "internalType": "uint256",
          "name": "tokenId",
          "type": "uint256"
        },
        {
          "indexed": false,
          "internalType": "uint256",
          "name": "reputationCount",
          "type": "uint256"
        }
      ],
      "name": "AddReputation",
      "type": "event"
    },
    {
      "anonymous": false,
      "inputs": [
        {
          "indexed": false,
          "internalType": "address",
          "name": "owner",
          "type": "address"
        },
        {
          "indexed": false,
          "internalType": "contract PatentNFT",
          "name": "patentNFT",
          "type": "address"
        },
        {
          "indexed": false,
          "internalType": "string",
          "name": "nftName",
          "type": "string"
        },
        {
          "indexed": false,
          "internalType": "string",
          "name": "nftSymbol",
          "type": "string"
        },
        {
          "indexed": false,
          "internalType": "uint256",
          "name": "patentPrice",
          "type": "uint256"
        },
        {
          "indexed": false,
          "internalType": "string",
          "name": "ipfsHashOfItem",
          "type": "string"
        }
      ],
      "name": "PatentNFTCreated",
      "type": "event"
    },
    {
      "inputs": [],
      "name": "baseTokenURI",
      "outputs": [
        {
          "internalType": "string",
          "name": "",
          "type": "string"
        }
      ],
      "stateMutability": "pure",
      "type": "function"
    },
    {
      "inputs": [
        {
          "internalType": "string",
          "name": "nftName",
          "type": "string"
        },
        {
          "internalType": "string",
          "name": "nftSymbol",
          "type": "string"
        },
        {
          "internalType": "uint256",
          "name": "patentPrice",
          "type": "uint256"
        },
        {
          "internalType": "string",
          "name": "ipfsHashOfItem",
          "type": "string"
        },
        {
          "internalType": "uint256",
          "name": "patentId",
          "type": "uint256"
        }
      ],
      "name": "createNewPatentNFT",
      "outputs": [
        {
          "internalType": "bool",
          "name": "",
          "type": "bool"
        }
      ],
      "stateMutability": "nonpayable",
      "type": "function"
    },
    {
      "inputs": [
        {
          "internalType": "string",
          "name": "_ipfsHashItem",
          "type": "string"
        }
      ],
      "name": "getTokenURI",
      "outputs": [
        {
          "internalType": "string",
          "name": "",
          "type": "string"
        }
      ],
      "stateMutability": "view",
      "type": "function"
    },
    {
      "inputs": [
        {
          "internalType": "uint256",
          "name": "",
          "type": "uint256"
        }
      ],
      "name": "patentAddresses",
      "outputs": [
        {
          "internalType": "address",
          "name": "",
          "type": "address"
        }
      ],
      "stateMutability": "view",
      "type": "function"
    },
    {
      "inputs": [],
      "name": "patentNFTData",
      "outputs": [
        {
          "internalType": "contract PatentNFTData",
          "name": "",
          "type": "address"
        }
      ],
      "stateMutability": "view",
      "type": "function"
    },
    {
      "inputs": [],
      "name": "patentNFTMarketplace",
      "outputs": [
        {
          "internalType": "contract PatentNFTMarketplace",
          "name": "",
          "type": "address"
        }
      ],
      "stateMutability": "view",
      "type": "function"
    }
  ],
  "bytecode": "0x608060405234801561001057600080fd5b5060405161282038038061282083398101604081905261002f91610072565b600280546001600160a01b039384166001600160a01b031991821681179092556003805493909416928116929092179092556001805490911690911790556100c3565b60008060408385031215610084578182fd5b825161008f816100ab565b60208401519092506100a0816100ab565b809150509250929050565b6001600160a01b03811681146100c057600080fd5b50565b61274e806100d26000396000f3fe60806040523480156200001157600080fd5b50600436106200007b5760003560e01c8063d3e1f6e31162000056578063d3e1f6e314620000f0578063d547cfb71462000116578063e88a6a21146200012057600080fd5b806341a1893b1462000080578063967bac0614620000ac578063d1176e2814620000d9575b600080fd5b620000976200009136600462000505565b62000134565b60405190151581526020015b60405180910390f35b600354620000c0906001600160a01b031681565b6040516001600160a01b039091168152602001620000a3565b620000c0620000ea366004620005a5565b6200037e565b6200010762000101366004620004c6565b620003a9565b604051620000a39190620007aa565b62000107620003df565b600254620000c0906001600160a01b031681565b600033816200014385620003a9565b9050600082898984886040516200015a9062000400565b6200016a9594939291906200068a565b604051809103906000f08015801562000187573d6000803e3d6000fd5b50600080546001810182558180527f290decd9548b62a8d60345a988386fc84ba6bc95484008f6362f93160ef3e5630180547fffffffffffffffffffffffff0000000000000000000000000000000000000000166001600160a01b0384811691909117909155600354604051635755b5a560e11b8152939450169163aeab6b4a91620002229185908e908e9033908f908f90600401620006eb565b602060405180830381600087803b1580156200023d57600080fd5b505af115801562000252573d6000803e3d6000fd5b505050506040513d601f19601f820116820180604052508101906200027891906200049d565b50600354604051634dd5bfa560e11b81526001600160a01b0390911690639bab7f4a90620002d59084906004016001600160a01b039190911681526040602082018190526004908201526327b832b760e11b606082015260800190565b602060405180830381600087803b158015620002f057600080fd5b505af115801562000305573d6000803e3d6000fd5b505050506040513d601f19601f820116820180604052508101906200032b91906200049d565b507ffebcedff8c76b9fb02b570770b0e5be3e4cc3681f8cd9b5b8707e8e986030ac133828b8b8b8b60405162000367969594939291906200061f565b60405180910390a150600198975050505050505050565b600081815481106200038f57600080fd5b6000918252602090912001546001600160a01b0316905081565b6060620003b5620003df565b82604051602001620003c9929190620005ec565b6040516020818303038152906040529050919050565b60606040518060600160405280602281526020016200272060229139905090565b611f17806200080983390190565b600082601f8301126200041f578081fd5b813567ffffffffffffffff808211156200043d576200043d620007f2565b604051601f8301601f19908116603f01168101908282118183101715620004685762000468620007f2565b8160405283815286602085880101111562000481578485fd5b8360208701602083013792830160200193909352509392505050565b600060208284031215620004af578081fd5b81518015158114620004bf578182fd5b9392505050565b600060208284031215620004d8578081fd5b813567ffffffffffffffff811115620004ef578182fd5b620004fd848285016200040e565b949350505050565b600080600080600060a086880312156200051d578081fd5b853567ffffffffffffffff8082111562000535578283fd5b6200054389838a016200040e565b9650602088013591508082111562000559578283fd5b6200056789838a016200040e565b955060408801359450606088013591508082111562000584578283fd5b5062000593888289016200040e565b95989497509295608001359392505050565b600060208284031215620005b7578081fd5b5035919050565b60008151808452620005d8816020860160208601620007bf565b601f01601f19169290920160200192915050565b6000835162000600818460208801620007bf565b83519083019062000616818360208801620007bf565b01949350505050565b60006001600160a01b03808916835280881660208401525060c060408301526200064d60c0830187620005be565b8281036060840152620006618187620005be565b905084608084015282810360a08401526200067d8185620005be565b9998505050505050505050565b6001600160a01b038616815260a060208201526000620006ae60a0830187620005be565b8281036040840152620006c28187620005be565b90508281036060840152620006d88186620005be565b9150508260808301529695505050505050565b600060e0820160e08352808a54808352610100850191508b845260209250828420845b82811015620007355781546001600160a01b0316845292840192600191820191016200070e565b5050506001600160a01b038a168483015283810360408501526200075a818a620005be565b9150508281036060840152620007718188620005be565b6001600160a01b038716608085015290508460a084015282810360c08401526200079c8185620005be565b9a9950505050505050505050565b602081526000620004bf6020830184620005be565b60005b83811015620007dc578181015183820152602001620007c2565b83811115620007ec576000848401525b50505050565b634e487b7160e01b600052604160045260246000fdfe60806040523480156200001157600080fd5b5060405162001f1738038062001f178339810160408190526200003491620005d0565b8351849084906200004d9060009060208501906200049b565b508051620000639060019060208401906200049b565b505050620000798583836200008560201b60201c565b505050505050620007b9565b6006819055600081620000998582620000b0565b620000a58185620000d6565b506001949350505050565b620000d28282604051806020016040528060008152506200017b60201b60201c565b5050565b6000828152600260205260409020546001600160a01b0316620001555760405162461bcd60e51b815260206004820152602c60248201527f4552433732314d657461646174613a2055524920736574206f66206e6f6e657860448201526b34b9ba32b73a103a37b5b2b760a11b60648201526084015b60405180910390fd5b6000828152600760209081526040909120825162000176928401906200049b565b505050565b620001878383620001ee565b62000196600084848462000336565b620001765760405162461bcd60e51b8152602060048201526032602482015260008051602062001ef783398151915260448201527131b2b4bb32b91034b6b83632b6b2b73a32b960711b60648201526084016200014c565b6001600160a01b038216620002465760405162461bcd60e51b815260206004820181905260248201527f4552433732313a206d696e7420746f20746865207a65726f206164647265737360448201526064016200014c565b6000818152600260205260409020546001600160a01b031615620002ad5760405162461bcd60e51b815260206004820152601c60248201527f4552433732313a20746f6b656e20616c7265616479206d696e7465640000000060448201526064016200014c565b6001600160a01b0382166000908152600360205260408120805460019290620002d89084906200070e565b909155505060008181526002602052604080822080546001600160a01b0319166001600160a01b03861690811790915590518392907fddf252ad1be2c89b69c2b068fc378daa952ba7f163c4a11628f55a4df523b3ef908290a45050565b600062000357846001600160a01b03166200049560201b620009441760201c565b15620000a557604051630a85bd0160e11b81526001600160a01b0385169063150b7a029062000391903390899088908890600401620006b8565b602060405180830381600087803b158015620003ac57600080fd5b505af1925050508015620003df575060408051601f3d908101601f19168201909252620003dc9181019062000687565b60015b62000478573d80801562000410576040519150601f19603f3d011682016040523d82523d6000602084013e62000415565b606091505b508051620004705760405162461bcd60e51b8152602060048201526032602482015260008051602062001ef783398151915260448201527131b2b4bb32b91034b6b83632b6b2b73a32b960711b60648201526084016200014c565b805181602001fd5b6001600160e01b031916630a85bd0160e11b149050949350505050565b3b151590565b828054620004a99062000766565b90600052602060002090601f016020900481019282620004cd576000855562000518565b82601f10620004e857805160ff191683800117855562000518565b8280016001018555821562000518579182015b8281111562000518578251825591602001919060010190620004fb565b50620005269291506200052a565b5090565b5b808211156200052657600081556001016200052b565b600082601f83011262000552578081fd5b81516001600160401b03808211156200056f576200056f620007a3565b604051601f8301601f19908116603f011681019082821181831017156200059a576200059a620007a3565b81604052838152866020858801011115620005b3578485fd5b620005c684602083016020890162000733565b9695505050505050565b600080600080600060a08688031215620005e8578081fd5b85516001600160a01b0381168114620005ff578182fd5b60208701519095506001600160401b03808211156200061c578283fd5b6200062a89838a0162000541565b9550604088015191508082111562000640578283fd5b6200064e89838a0162000541565b9450606088015191508082111562000664578283fd5b50620006738882890162000541565b925050608086015190509295509295909350565b60006020828403121562000699578081fd5b81516001600160e01b031981168114620006b1578182fd5b9392505050565b600060018060a01b038087168352808616602084015250836040830152608060608301528251806080840152620006f78160a085016020870162000733565b601f01601f19169190910160a00195945050505050565b600082198211156200072e57634e487b7160e01b81526011600452602481fd5b500190565b60005b838110156200075057818101518382015260200162000736565b8381111562000760576000848401525b50505050565b600181811c908216806200077b57607f821691505b602082108114156200079d57634e487b7160e01b600052602260045260246000fd5b50919050565b634e487b7160e01b600052604160045260246000fd5b61172e80620007c96000396000f3fe608060405234801561001057600080fd5b50600436106100f55760003560e01c806370a0823111610097578063b88d4fde11610066578063b88d4fde146101f5578063ba7aef4314610208578063c87b56dd1461021b578063e985e9c51461022e57600080fd5b806370a08231146101b05780637c0bfeb6146101d157806395d89b41146101da578063a22cb465146101e257600080fd5b8063095ea7b3116100d3578063095ea7b31461016257806323b872dd1461017757806342842e0e1461018a5780636352211e1461019d57600080fd5b806301ffc9a7146100fa57806306fdde0314610122578063081812fc14610137575b600080fd5b61010d6101083660046114f3565b61026a565b60405190151581526020015b60405180910390f35b61012a6102bc565b60405161011991906115da565b61014a61014536600461152b565b61034e565b6040516001600160a01b039091168152602001610119565b6101756101703660046114ca565b6103e8565b005b610175610185366004611374565b6104fe565b610175610198366004611374565b610585565b61014a6101ab36600461152b565b6105a0565b6101c36101be366004611328565b61062b565b604051908152602001610119565b6101c360065481565b61012a6106c5565b6101756101f0366004611428565b6106d4565b6101756102033660046113af565b610799565b61010d610216366004611462565b610827565b61012a61022936600461152b565b61084e565b61010d61023c366004611342565b6001600160a01b03918216600090815260056020908152604080832093909416825291909152205460ff1690565b60006001600160e01b031982166380ac58cd60e01b148061029b57506001600160e01b03198216635b5e139f60e01b145b806102b657506301ffc9a760e01b6001600160e01b03198316145b92915050565b6060600080546102cb9061165c565b80601f01602080910402602001604051908101604052809291908181526020018280546102f79061165c565b80156103445780601f1061031957610100808354040283529160200191610344565b820191906000526020600020905b81548152906001019060200180831161032757829003601f168201915b5050505050905090565b6000818152600260205260408120546001600160a01b03166103cc5760405162461bcd60e51b815260206004820152602c60248201527f4552433732313a20617070726f76656420717565727920666f72206e6f6e657860448201526b34b9ba32b73a103a37b5b2b760a11b60648201526084015b60405180910390fd5b506000908152600460205260409020546001600160a01b031690565b60006103f3826105a0565b9050806001600160a01b0316836001600160a01b031614156104615760405162461bcd60e51b815260206004820152602160248201527f4552433732313a20617070726f76616c20746f2063757272656e74206f776e656044820152603960f91b60648201526084016103c3565b336001600160a01b038216148061047d575061047d813361023c565b6104ef5760405162461bcd60e51b815260206004820152603860248201527f4552433732313a20617070726f76652063616c6c6572206973206e6f74206f7760448201527f6e6572206e6f7220617070726f76656420666f7220616c6c000000000000000060648201526084016103c3565b6104f9838361094a565b505050565b61050833826109c5565b61057a5760405162461bcd60e51b815260206004820152603160248201527f4552433732313a207472616e736665722063616c6c6572206973206e6f74206f60448201527f776e6572206e6f7220617070726f76656400000000000000000000000000000060648201526084016103c3565b6104f9838383610abc565b6104f983838360405180602001604052806000815250610799565b6000818152600260205260408120546001600160a01b0316806102b65760405162461bcd60e51b815260206004820152602960248201527f4552433732313a206f776e657220717565727920666f72206e6f6e657869737460448201527f656e7420746f6b656e000000000000000000000000000000000000000000000060648201526084016103c3565b60006001600160a01b0382166106a95760405162461bcd60e51b815260206004820152602a60248201527f4552433732313a2062616c616e636520717565727920666f7220746865207a6560448201527f726f20616464726573730000000000000000000000000000000000000000000060648201526084016103c3565b506001600160a01b031660009081526003602052604090205490565b6060600180546102cb9061165c565b6001600160a01b03821633141561072d5760405162461bcd60e51b815260206004820152601960248201527f4552433732313a20617070726f766520746f2063616c6c65720000000000000060448201526064016103c3565b3360008181526005602090815260408083206001600160a01b03871680855290835292819020805460ff191686151590811790915590519081529192917f17307eab39ab6107e8899845ad3d59bd9653f200f220920489ca2b5937696c31910160405180910390a35050565b6107a333836109c5565b6108155760405162461bcd60e51b815260206004820152603160248201527f4552433732313a207472616e736665722063616c6c6572206973206e6f74206f60448201527f776e6572206e6f7220617070726f76656400000000000000000000000000000060648201526084016103c3565b61082184848484610c7d565b50505050565b60068190556000816108398582610cfb565b6108438185610d19565b506001949350505050565b6000818152600260205260409020546060906001600160a01b03166108db5760405162461bcd60e51b815260206004820152602f60248201527f4552433732314d657461646174613a2055524920717565727920666f72206e6f60448201527f6e6578697374656e7420746f6b656e000000000000000000000000000000000060648201526084016103c3565b60006108f260408051602081019091526000815290565b90506000815111610912576040518060200160405280600081525061093d565b8061091c84610db1565b60405160200161092d92919061156f565b6040516020818303038152906040525b9392505050565b3b151590565b6000818152600460205260409020805473ffffffffffffffffffffffffffffffffffffffff19166001600160a01b038416908117909155819061098c826105a0565b6001600160a01b03167f8c5be1e5ebec7d5bd14f71427d1e84f3dd0314c0f7b2291e5b200ac8c7c3b92560405160405180910390a45050565b6000818152600260205260408120546001600160a01b0316610a3e5760405162461bcd60e51b815260206004820152602c60248201527f4552433732313a206f70657261746f7220717565727920666f72206e6f6e657860448201526b34b9ba32b73a103a37b5b2b760a11b60648201526084016103c3565b6000610a49836105a0565b9050806001600160a01b0316846001600160a01b03161480610a845750836001600160a01b0316610a798461034e565b6001600160a01b0316145b80610ab457506001600160a01b0380821660009081526005602090815260408083209388168352929052205460ff165b949350505050565b826001600160a01b0316610acf826105a0565b6001600160a01b031614610b4b5760405162461bcd60e51b815260206004820152602960248201527f4552433732313a207472616e73666572206f6620746f6b656e2074686174206960448201527f73206e6f74206f776e000000000000000000000000000000000000000000000060648201526084016103c3565b6001600160a01b038216610bad5760405162461bcd60e51b8152602060048201526024808201527f4552433732313a207472616e7366657220746f20746865207a65726f206164646044820152637265737360e01b60648201526084016103c3565b610bb860008261094a565b6001600160a01b0383166000908152600360205260408120805460019290610be1908490611619565b90915550506001600160a01b0382166000908152600360205260408120805460019290610c0f9084906115ed565b9091555050600081815260026020526040808220805473ffffffffffffffffffffffffffffffffffffffff19166001600160a01b0386811691821790925591518493918716917fddf252ad1be2c89b69c2b068fc378daa952ba7f163c4a11628f55a4df523b3ef91a4505050565b610c88848484610abc565b610c9484848484610ee3565b6108215760405162461bcd60e51b815260206004820152603260248201527f4552433732313a207472616e7366657220746f206e6f6e20455243373231526560448201527131b2b4bb32b91034b6b83632b6b2b73a32b960711b60648201526084016103c3565b610d15828260405180602001604052806000815250611030565b5050565b6000828152600260205260409020546001600160a01b0316610d925760405162461bcd60e51b815260206004820152602c60248201527f4552433732314d657461646174613a2055524920736574206f66206e6f6e657860448201526b34b9ba32b73a103a37b5b2b760a11b60648201526084016103c3565b600082815260076020908152604090912082516104f9928401906111fd565b606081610dd55750506040805180820190915260018152600360fc1b602082015290565b8160005b8115610dff5780610de981611697565b9150610df89050600a83611605565b9150610dd9565b60008167ffffffffffffffff811115610e2857634e487b7160e01b600052604160045260246000fd5b6040519080825280601f01601f191660200182016040528015610e52576020820181803683370190505b5090505b8415610ab457610e67600183611619565b9150610e74600a866116b2565b610e7f9060306115ed565b60f81b818381518110610ea257634e487b7160e01b600052603260045260246000fd5b60200101907effffffffffffffffffffffffffffffffffffffffffffffffffffffffffffff1916908160001a905350610edc600a86611605565b9450610e56565b60006001600160a01b0384163b1561084357604051630a85bd0160e11b81526001600160a01b0385169063150b7a0290610f2790339089908890889060040161159e565b602060405180830381600087803b158015610f4157600080fd5b505af1925050508015610f71575060408051601f3d908101601f19168201909252610f6e9181019061150f565b60015b611016573d808015610f9f576040519150601f19603f3d011682016040523d82523d6000602084013e610fa4565b606091505b50805161100e5760405162461bcd60e51b815260206004820152603260248201527f4552433732313a207472616e7366657220746f206e6f6e20455243373231526560448201527131b2b4bb32b91034b6b83632b6b2b73a32b960711b60648201526084016103c3565b805181602001fd5b6001600160e01b031916630a85bd0160e11b149050610ab4565b61103a83836110ae565b6110476000848484610ee3565b6104f95760405162461bcd60e51b815260206004820152603260248201527f4552433732313a207472616e7366657220746f206e6f6e20455243373231526560448201527131b2b4bb32b91034b6b83632b6b2b73a32b960711b60648201526084016103c3565b6001600160a01b0382166111045760405162461bcd60e51b815260206004820181905260248201527f4552433732313a206d696e7420746f20746865207a65726f206164647265737360448201526064016103c3565b6000818152600260205260409020546001600160a01b0316156111695760405162461bcd60e51b815260206004820152601c60248201527f4552433732313a20746f6b656e20616c7265616479206d696e7465640000000060448201526064016103c3565b6001600160a01b03821660009081526003602052604081208054600192906111929084906115ed565b9091555050600081815260026020526040808220805473ffffffffffffffffffffffffffffffffffffffff19166001600160a01b03861690811790915590518392907fddf252ad1be2c89b69c2b068fc378daa952ba7f163c4a11628f55a4df523b3ef908290a45050565b8280546112099061165c565b90600052602060002090601f01602090048101928261122b5760008555611271565b82601f1061124457805160ff1916838001178555611271565b82800160010185558215611271579182015b82811115611271578251825591602001919060010190611256565b5061127d929150611281565b5090565b5b8082111561127d5760008155600101611282565b600067ffffffffffffffff808411156112b1576112b16116f2565b604051601f8501601f19908116603f011681019082821181831017156112d9576112d96116f2565b816040528093508581528686860111156112f257600080fd5b858560208301376000602087830101525050509392505050565b80356001600160a01b038116811461132357600080fd5b919050565b600060208284031215611339578081fd5b61093d8261130c565b60008060408385031215611354578081fd5b61135d8361130c565b915061136b6020840161130c565b90509250929050565b600080600060608486031215611388578081fd5b6113918461130c565b925061139f6020850161130c565b9150604084013590509250925092565b600080600080608085870312156113c4578081fd5b6113cd8561130c565b93506113db6020860161130c565b925060408501359150606085013567ffffffffffffffff8111156113fd578182fd5b8501601f8101871361140d578182fd5b61141c87823560208401611296565b91505092959194509250565b6000806040838503121561143a578182fd5b6114438361130c565b915060208301358015158114611457578182fd5b809150509250929050565b600080600060608486031215611476578283fd5b61147f8461130c565b9250602084013567ffffffffffffffff81111561149a578283fd5b8401601f810186136114aa578283fd5b6114b986823560208401611296565b925050604084013590509250925092565b600080604083850312156114dc578182fd5b6114e58361130c565b946020939093013593505050565b600060208284031215611504578081fd5b813561093d81611708565b600060208284031215611520578081fd5b815161093d81611708565b60006020828403121561153c578081fd5b5035919050565b6000815180845261155b816020860160208601611630565b601f01601f19169290920160200192915050565b60008351611581818460208801611630565b835190830190611595818360208801611630565b01949350505050565b60006001600160a01b038087168352808616602084015250836040830152608060608301526115d06080830184611543565b9695505050505050565b60208152600061093d6020830184611543565b60008219821115611600576116006116c6565b500190565b600082611614576116146116dc565b500490565b60008282101561162b5761162b6116c6565b500390565b60005b8381101561164b578181015183820152602001611633565b838111156108215750506000910152565b600181811c9082168061167057607f821691505b6020821081141561169157634e487b7160e01b600052602260045260246000fd5b50919050565b60006000198214156116ab576116ab6116c6565b5060010190565b6000826116c1576116c16116dc565b500690565b634e487b7160e01b600052601160045260246000fd5b634e487b7160e01b600052601260045260246000fd5b634e487b7160e01b600052604160045260246000fd5b6001600160e01b03198116811461171e57600080fd5b5056fea164736f6c6343000804000a4552433732313a207472616e7366657220746f206e6f6e20455243373231526568747470733a2f2f676174657761792e70696e6174612e636c6f75642f697066732fa164736f6c6343000804000a",
  "linkReferences": {},
  "deployedLinkReferences": {}
}