{
  "_format": "hh-sol-artifact-1",
  "contractName": "PatentNFTData",
  "sourceName": "contracts/PatentNFTData.sol",
  "abi": [
    {
      "inputs": [],
      "stateMutability": "nonpayable",
      "type": "constructor"
    },
    {
      "inputs": [
        {
          "internalType": "contract PatentNFT",
          "name": "_patentNFT",
          "type": "address"
        },
        {
          "internalType": "uint256",
          "name": "_patentPrice",
          "type": "uint256"
        }
      ],
      "name": "changePatentPrice",
      "outputs": [],
      "stateMutability": "nonpayable",
      "type": "function"
    },
    {
      "inputs": [],
      "name": "getAllPatentAddress",
      "outputs": [
        {
          "internalType": "address[]",
          "name": "",
          "type": "address[]"
        }
      ],
      "stateMutability": "view",
      "type": "function"
    },
    {
      "inputs": [],
      "name": "getAllPatents",
      "outputs": [
        {
          "components": [
            {
              "internalType": "contract PatentNFT",
              "name": "patentNFT",
              "type": "address"
            },
            {
              "internalType": "string",
              "name": "patentNFTName",
              "type": "string"
            },
            {
              "internalType": "string",
              "name": "patentNFTSymbol",
              "type": "string"
            },
            {
              "internalType": "address",
              "name": "ownerAddress",
              "type": "address"
            },
            {
              "internalType": "uint256",
              "name": "patentPrice",
              "type": "uint256"
            },
            {
              "internalType": "string",
              "name": "ipfsHashOfItem",
              "type": "string"
            },
            {
              "internalType": "string",
              "name": "status",
              "type": "string"
            },
            {
              "internalType": "uint256",
              "name": "reputation",
              "type": "uint256"
            }
          ],
          "internalType": "struct PatentNFTDataObjects.Patent[]",
          "name": "_patents",
          "type": "tuple[]"
        }
      ],
      "stateMutability": "view",
      "type": "function"
    },
    {
      "inputs": [
        {
          "internalType": "address",
          "name": "creatorAddress",
          "type": "address"
        }
      ],
      "name": "getMyPatents",
      "outputs": [
        {
          "internalType": "contract PatentNFT[]",
          "name": "_patents",
          "type": "address[]"
        }
      ],
      "stateMutability": "view",
      "type": "function"
    },
    {
      "inputs": [
        {
          "internalType": "uint256",
          "name": "index",
          "type": "uint256"
        }
      ],
      "name": "getPatent",
      "outputs": [
        {
          "components": [
            {
              "internalType": "contract PatentNFT",
              "name": "patentNFT",
              "type": "address"
            },
            {
              "internalType": "string",
              "name": "patentNFTName",
              "type": "string"
            },
            {
              "internalType": "string",
              "name": "patentNFTSymbol",
              "type": "string"
            },
            {
              "internalType": "address",
              "name": "ownerAddress",
              "type": "address"
            },
            {
              "internalType": "uint256",
              "name": "patentPrice",
              "type": "uint256"
            },
            {
              "internalType": "string",
              "name": "ipfsHashOfItem",
              "type": "string"
            },
            {
              "internalType": "string",
              "name": "status",
              "type": "string"
            },
            {
              "internalType": "uint256",
              "name": "reputation",
              "type": "uint256"
            }
          ],
          "internalType": "struct PatentNFTDataObjects.Patent",
          "name": "_patent",
          "type": "tuple"
        }
      ],
      "stateMutability": "view",
      "type": "function"
    },
    {
      "inputs": [
        {
          "internalType": "contract PatentNFT",
          "name": "patentNFT",
          "type": "address"
        }
      ],
      "name": "getPatentByNFTAddress",
      "outputs": [
        {
          "components": [
            {
              "internalType": "contract PatentNFT",
              "name": "patentNFT",
              "type": "address"
            },
            {
              "internalType": "string",
              "name": "patentNFTName",
              "type": "string"
            },
            {
              "internalType": "string",
              "name": "patentNFTSymbol",
              "type": "string"
            },
            {
              "internalType": "address",
              "name": "ownerAddress",
              "type": "address"
            },
            {
              "internalType": "uint256",
              "name": "patentPrice",
              "type": "uint256"
            },
            {
              "internalType": "string",
              "name": "ipfsHashOfItem",
              "type": "string"
            },
            {
              "internalType": "string",
              "name": "status",
              "type": "string"
            },
            {
              "internalType": "uint256",
              "name": "reputation",
              "type": "uint256"
            }
          ],
          "internalType": "struct PatentNFTDataObjects.Patent",
          "name": "_patent",
          "type": "tuple"
        }
      ],
      "stateMutability": "view",
      "type": "function"
    },
    {
      "inputs": [
        {
          "internalType": "contract PatentNFT",
          "name": "patentNFT",
          "type": "address"
        }
      ],
      "name": "getPatentIndex",
      "outputs": [
        {
          "internalType": "uint256",
          "name": "_patentIndex",
          "type": "uint256"
        }
      ],
      "stateMutability": "view",
      "type": "function"
    },
    {
      "inputs": [
        {
          "internalType": "uint256",
          "name": "",
          "type": "uint256"
        }
      ],
      "name": "patentAddresses",
      "outputs": [
        {
          "internalType": "address",
          "name": "",
          "type": "address"
        }
      ],
      "stateMutability": "view",
      "type": "function"
    },
    {
      "inputs": [
        {
          "internalType": "uint256",
          "name": "",
          "type": "uint256"
        }
      ],
      "name": "patents",
      "outputs": [
        {
          "internalType": "contract PatentNFT",
          "name": "patentNFT",
          "type": "address"
        },
        {
          "internalType": "string",
          "name": "patentNFTName",
          "type": "string"
        },
        {
          "internalType": "string",
          "name": "patentNFTSymbol",
          "type": "string"
        },
        {
          "internalType": "address",
          "name": "ownerAddress",
          "type": "address"
        },
        {
          "internalType": "uint256",
          "name": "patentPrice",
          "type": "uint256"
        },
        {
          "internalType": "string",
          "name": "ipfsHashOfItem",
          "type": "string"
        },
        {
          "internalType": "string",
          "name": "status",
          "type": "string"
        },
        {
          "internalType": "uint256",
          "name": "reputation",
          "type": "uint256"
        }
      ],
      "stateMutability": "view",
      "type": "function"
    },
    {
      "inputs": [
        {
          "internalType": "address[]",
          "name": "_patentAddresses",
          "type": "address[]"
        },
        {
          "internalType": "contract PatentNFT",
          "name": "_patentNFT",
          "type": "address"
        },
        {
          "internalType": "string",
          "name": "_patentNFTName",
          "type": "string"
        },
        {
          "internalType": "string",
          "name": "_patentNFTSymbol",
          "type": "string"
        },
        {
          "internalType": "address",
          "name": "_ownerAddress",
          "type": "address"
        },
        {
          "internalType": "uint256",
          "name": "_patentPrice",
          "type": "uint256"
        },
        {
          "internalType": "string",
          "name": "_ipfsHashOfItem",
          "type": "string"
        }
      ],
      "name": "saveMetadataOfPatentNFT",
      "outputs": [
        {
          "internalType": "bool",
          "name": "",
          "type": "bool"
        }
      ],
      "stateMutability": "nonpayable",
      "type": "function"
    },
    {
      "inputs": [
        {
          "internalType": "contract PatentNFT",
          "name": "_patentNFT",
          "type": "address"
        },
        {
          "internalType": "address",
          "name": "_newOwner",
          "type": "address"
        }
      ],
      "name": "updateOwnerOfPatentNFT",
      "outputs": [
        {
          "internalType": "bool",
          "name": "",
          "type": "bool"
        }
      ],
      "stateMutability": "nonpayable",
      "type": "function"
    },
    {
      "inputs": [
        {
          "internalType": "contract PatentNFT",
          "name": "_patentNFT",
          "type": "address"
        },
        {
          "internalType": "string",
          "name": "_newStatus",
          "type": "string"
        }
      ],
      "name": "updateStatus",
      "outputs": [
        {
          "internalType": "bool",
          "name": "",
          "type": "bool"
        }
      ],
      "stateMutability": "nonpayable",
      "type": "function"
    }
  ],
  "bytecode": "0x60806040523480156200001157600080fd5b506200004160405180606001604052806022815260200162001c41602291396200004760201b620013d31760201c565b6200010c565b62000092816040516024016200005e9190620000b6565b60408051601f198184030181529190526020810180516001600160e01b0390811663104c13eb60e21b179091526200009516565b50565b80516a636f6e736f6c652e6c6f67602083016000808483855afa5050505050565b6000602080835283518082850152825b81811015620000e457858101830151858201604001528201620000c6565b81811115620000f65783604083870101525b50601f01601f1916929092016040019392505050565b611b25806200011c6000396000f3fe608060405234801561001057600080fd5b50600436106100d45760003560e01c8063a241e66911610081578063d1176e281161005b578063d1176e28146101bc578063f422bc68146101e7578063f7e9ad6a1461020e57600080fd5b8063a241e66914610175578063a370fd3f14610196578063aeab6b4a146101a957600080fd5b8063789d91db116100b2578063789d91db1461011f5780639bab7f4a146101425780639c6d0d781461015557600080fd5b806317b26ef8146100d957806335aac232146101025780636c57bfaf14610117575b600080fd5b6100ec6100e7366004611644565b610223565b6040516100f99190611901565b60405180910390f35b6101156101103660046117c0565b610299565b005b6100ec61036d565b61013261012d36600461173a565b6103cf565b60405190151581526020016100f9565b610132610150366004611772565b6104c1565b6101686101633660046117eb565b610525565b6040516100f99190611a47565b610188610183366004611644565b61084e565b6040519081526020016100f9565b6101686101a4366004611644565b6108c2565b6101326101b7366004611667565b610c59565b6101cf6101ca3660046117eb565b610e34565b6040516001600160a01b0390911681526020016100f9565b6101fa6101f53660046117eb565b610e5e565b6040516100f99897969594939291906119af565b6102166110ea565b6040516100f9919061194e565b6001600160a01b03811660009081526002602090815260409182902080548351818402810184019094528084526060939283018282801561028d57602002820191906000526020600020905b81546001600160a01b0316815260019091019060200180831161026f575b50505050509050919050565b60006102a48361084e565b905060008082815481106102c857634e487b7160e01b600052603260045260246000fd5b6000918252602090912060089091020160038101549091506001600160a01b031633146103625760405162461bcd60e51b815260206004820152603960248201527f796f752063616e6e6f74206368616e67652074686520706174656e742070726960448201527f63652c20796f7520617265206e6f7420746865206f776e65720000000000000060648201526084015b60405180910390fd5b600401919091555050565b606060018054806020026020016040519081016040528092919081815260200182805480156103c557602002820191906000526020600020905b81546001600160a01b031681526001909101906020018083116103a7575b5050505050905090565b6000806103db8461084e565b905060008082815481106103ff57634e487b7160e01b600052603260045260246000fd5b9060005260206000209060080201905060006001600160a01b0316846001600160a01b031614156104985760405162461bcd60e51b815260206004820152602760248201527f41206e6577206f776e657220616464726573732073686f756c64206265206e6f60448201527f7420656d707479000000000000000000000000000000000000000000000000006064820152608401610359565b60030180546001600160a01b0385166001600160a01b0319909116179055506001905092915050565b6000806104cd8461084e565b905060008082815481106104f157634e487b7160e01b600052603260045260246000fd5b906000526020600020906008020190508381600601908051906020019061051992919061144f565b50600195945050505050565b61057f60405180610100016040528060006001600160a01b03168152602001606081526020016060815260200160006001600160a01b03168152602001600081526020016060815260200160608152602001600081525090565b60008083815481106105a157634e487b7160e01b600052603260045260246000fd5b600091825260209182902060408051610100810190915260089092020180546001600160a01b0316825260018101805492939192918401916105e290611a8b565b80601f016020809104026020016040519081016040528092919081815260200182805461060e90611a8b565b801561065b5780601f106106305761010080835404028352916020019161065b565b820191906000526020600020905b81548152906001019060200180831161063e57829003601f168201915b5050505050815260200160028201805461067490611a8b565b80601f01602080910402602001604051908101604052809291908181526020018280546106a090611a8b565b80156106ed5780601f106106c2576101008083540402835291602001916106ed565b820191906000526020600020905b8154815290600101906020018083116106d057829003601f168201915b505050918352505060038201546001600160a01b031660208201526004820154604082015260058201805460609092019161072790611a8b565b80601f016020809104026020016040519081016040528092919081815260200182805461075390611a8b565b80156107a05780601f10610775576101008083540402835291602001916107a0565b820191906000526020600020905b81548152906001019060200180831161078357829003601f168201915b505050505081526020016006820180546107b990611a8b565b80601f01602080910402602001604051908101604052809291908181526020018280546107e590611a8b565b80156108325780601f1061080757610100808354040283529160200191610832565b820191906000526020600020905b81548152906001019060200180831161081557829003601f168201915b5050509183525050600791909101546020909101529392505050565b60008181805b6001548110156108ba57826001600160a01b03166001828154811061088957634e487b7160e01b600052603260045260246000fd5b6000918252602090912001546001600160a01b031614156108a8578091505b806108b281611ac6565b915050610854565b509392505050565b61091c60405180610100016040528060006001600160a01b03168152602001606081526020016060815260200160006001600160a01b03168152602001600081526020016060815260200160608152602001600081525090565b816000805b60015481101561098757826001600160a01b03166001828154811061095657634e487b7160e01b600052603260045260246000fd5b6000918252602090912001546001600160a01b03161415610975578091505b8061097f81611ac6565b915050610921565b5060008082815481106109aa57634e487b7160e01b600052603260045260246000fd5b600091825260209182902060408051610100810190915260089092020180546001600160a01b0316825260018101805492939192918401916109eb90611a8b565b80601f0160208091040260200160405190810160405280929190818152602001828054610a1790611a8b565b8015610a645780601f10610a3957610100808354040283529160200191610a64565b820191906000526020600020905b815481529060010190602001808311610a4757829003601f168201915b50505050508152602001600282018054610a7d90611a8b565b80601f0160208091040260200160405190810160405280929190818152602001828054610aa990611a8b565b8015610af65780601f10610acb57610100808354040283529160200191610af6565b820191906000526020600020905b815481529060010190602001808311610ad957829003601f168201915b505050918352505060038201546001600160a01b0316602082015260048201546040820152600582018054606090920191610b3090611a8b565b80601f0160208091040260200160405190810160405280929190818152602001828054610b5c90611a8b565b8015610ba95780601f10610b7e57610100808354040283529160200191610ba9565b820191906000526020600020905b815481529060010190602001808311610b8c57829003601f168201915b50505050508152602001600682018054610bc290611a8b565b80601f0160208091040260200160405190810160405280929190818152602001828054610bee90611a8b565b8015610c3b5780601f10610c1057610100808354040283529160200191610c3b565b820191906000526020600020905b815481529060010190602001808311610c1e57829003601f168201915b50505091835250506007919091015460209091015295945050505050565b60408051610100810182526001600160a01b038881168252602080830189815283850189905287831660608501526080840187905260a084018690528451808601909552600485526327b832b760e11b8583015260c0840194909452600060e08401819052805460018101825581805284517f290decd9548b62a8d60345a988386fc84ba6bc95484008f6362f93160ef3e563600890920291820180546001600160a01b03191691909516178455945180519195859493610d40937f290decd9548b62a8d60345a988386fc84ba6bc95484008f6362f93160ef3e56490920192019061144f565b5060408201518051610d5c91600284019160209091019061144f565b5060608201516003820180546001600160a01b0319166001600160a01b039092169190911790556080820151600482015560a08201518051610da891600584019160209091019061144f565b5060c08201518051610dc491600684019160209091019061144f565b5060e091909101516007909101556001600160a01b03858116600090815260026020908152604082208054600180820183559184529282902090920180546001600160a01b031916938c16939093179092558a51610e24928c01906114d3565b5060019998505050505050505050565b60018181548110610e4457600080fd5b6000918252602090912001546001600160a01b0316905081565b60008181548110610e6e57600080fd5b6000918252602090912060089091020180546001820180546001600160a01b03909216935090610e9d90611a8b565b80601f0160208091040260200160405190810160405280929190818152602001828054610ec990611a8b565b8015610f165780601f10610eeb57610100808354040283529160200191610f16565b820191906000526020600020905b815481529060010190602001808311610ef957829003601f168201915b505050505090806002018054610f2b90611a8b565b80601f0160208091040260200160405190810160405280929190818152602001828054610f5790611a8b565b8015610fa45780601f10610f7957610100808354040283529160200191610fa4565b820191906000526020600020905b815481529060010190602001808311610f8757829003601f168201915b505050506003830154600484015460058501805494956001600160a01b039093169491935090610fd390611a8b565b80601f0160208091040260200160405190810160405280929190818152602001828054610fff90611a8b565b801561104c5780601f106110215761010080835404028352916020019161104c565b820191906000526020600020905b81548152906001019060200180831161102f57829003601f168201915b50505050509080600601805461106190611a8b565b80601f016020809104026020016040519081016040528092919081815260200182805461108d90611a8b565b80156110da5780601f106110af576101008083540402835291602001916110da565b820191906000526020600020905b8154815290600101906020018083116110bd57829003601f168201915b5050505050908060070154905088565b60606000805480602002602001604051908101604052809291908181526020016000905b828210156113ca5760008481526020908190206040805161010081019091526008850290910180546001600160a01b03168252600181018054929391929184019161115890611a8b565b80601f016020809104026020016040519081016040528092919081815260200182805461118490611a8b565b80156111d15780601f106111a6576101008083540402835291602001916111d1565b820191906000526020600020905b8154815290600101906020018083116111b457829003601f168201915b505050505081526020016002820180546111ea90611a8b565b80601f016020809104026020016040519081016040528092919081815260200182805461121690611a8b565b80156112635780601f1061123857610100808354040283529160200191611263565b820191906000526020600020905b81548152906001019060200180831161124657829003601f168201915b505050918352505060038201546001600160a01b031660208201526004820154604082015260058201805460609092019161129d90611a8b565b80601f01602080910402602001604051908101604052809291908181526020018280546112c990611a8b565b80156113165780601f106112eb57610100808354040283529160200191611316565b820191906000526020600020905b8154815290600101906020018083116112f957829003601f168201915b5050505050815260200160068201805461132f90611a8b565b80601f016020809104026020016040519081016040528092919081815260200182805461135b90611a8b565b80156113a85780601f1061137d576101008083540402835291602001916113a8565b820191906000526020600020905b81548152906001019060200180831161138b57829003601f168201915b505050505081526020016007820154815250508152602001906001019061110e565b50505050905090565b61142b816040516024016113e79190611a34565b60408051601f198184030181529190526020810180517bffffffffffffffffffffffffffffffffffffffffffffffffffffffff1663104c13eb60e21b17905261142e565b50565b80516a636f6e736f6c652e6c6f67602083016000808483855afa5050505050565b82805461145b90611a8b565b90600052602060002090601f01602090048101928261147d57600085556114c3565b82601f1061149657805160ff19168380011785556114c3565b828001600101855582156114c3579182015b828111156114c35782518255916020019190600101906114a8565b506114cf929150611528565b5090565b8280548282559060005260206000209081019282156114c3579160200282015b828111156114c357825182546001600160a01b0319166001600160a01b039091161782556020909201916001909101906114f3565b5b808211156114cf5760008155600101611529565b803561154881611b03565b919050565b600082601f83011261155d578081fd5b8135602067ffffffffffffffff82111561157957611579611aed565b8160051b611588828201611a5a565b8381528281019086840183880185018910156115a2578687fd5b8693505b858410156115cd5780356115b981611b03565b8352600193909301929184019184016115a6565b50979650505050505050565b600082601f8301126115e9578081fd5b813567ffffffffffffffff81111561160357611603611aed565b611616601f8201601f1916602001611a5a565b81815284602083860101111561162a578283fd5b816020850160208301379081016020019190915292915050565b600060208284031215611655578081fd5b813561166081611b03565b9392505050565b600080600080600080600060e0888a031215611681578283fd5b873567ffffffffffffffff80821115611698578485fd5b6116a48b838c0161154d565b98506116b260208b0161153d565b975060408a01359150808211156116c7578485fd5b6116d38b838c016115d9565b965060608a01359150808211156116e8578485fd5b6116f48b838c016115d9565b955061170260808b0161153d565b945060a08a0135935060c08a013591508082111561171e578283fd5b5061172b8a828b016115d9565b91505092959891949750929550565b6000806040838503121561174c578182fd5b823561175781611b03565b9150602083013561176781611b03565b809150509250929050565b60008060408385031215611784578182fd5b823561178f81611b03565b9150602083013567ffffffffffffffff8111156117aa578182fd5b6117b6858286016115d9565b9150509250929050565b600080604083850312156117d2578182fd5b82356117dd81611b03565b946020939093013593505050565b6000602082840312156117fc578081fd5b5035919050565b60008151808452815b818110156118285760208185018101518683018201520161180c565b818111156118395782602083870101525b50601f01601f19169290920160200192915050565b80516001600160a01b031682526000610100602083015181602086015261187782860182611803565b915050604083015184820360408601526118918282611803565b91505060608301516118ae60608601826001600160a01b03169052565b506080830151608085015260a083015184820360a08601526118d08282611803565b91505060c083015184820360c08601526118ea8282611803565b91505060e083015160e08501528091505092915050565b6020808252825182820181905260009190848201906040850190845b818110156119425783516001600160a01b03168352928401929184019160010161191d565b50909695505050505050565b6000602080830181845280855180835260408601915060408160051b8701019250838701855b828110156119a257603f1988860301845261199085835161184e565b94509285019290850190600101611974565b5092979650505050505050565b60006101006001600160a01b03808c1684528160208501526119d38285018c611803565b915083820360408501526119e7828b611803565b915080891660608501525086608084015282810360a0840152611a0a8187611803565b905082810360c0840152611a1e8186611803565b9150508260e08301529998505050505050505050565b6020815260006116606020830184611803565b602081526000611660602083018461184e565b604051601f8201601f1916810167ffffffffffffffff81118282101715611a8357611a83611aed565b604052919050565b600181811c90821680611a9f57607f821691505b60208210811415611ac057634e487b7160e01b600052602260045260246000fd5b50919050565b6000600019821415611ae657634e487b7160e01b81526011600452602481fd5b5060010190565b634e487b7160e01b600052604160045260246000fd5b6001600160a01b038116811461142b57600080fdfea164736f6c6343000804000a4465706c6f79696e67206120506174656e744e46544461746120636f6e7472616374",
  "linkReferences": {},
  "deployedLinkReferences": {}
}